{
  "contractName": "State",
  "abi": [
    {
      "inputs": [
        {
          "internalType": "uint256",
          "name": "_availableVaccine",
          "type": "uint256"
        },
        {
          "internalType": "string",
          "name": "_password",
          "type": "string"
        },
        {
          "internalType": "string",
          "name": "_name",
          "type": "string"
        }
      ],
      "stateMutability": "nonpayable",
      "type": "constructor"
    },
    {
      "inputs": [],
      "name": "currentAvailableVaccine",
      "outputs": [
        {
          "internalType": "uint256",
          "name": "",
          "type": "uint256"
        }
      ],
      "stateMutability": "view",
      "type": "function"
    },
    {
      "inputs": [],
      "name": "currentRequestedVaccine",
      "outputs": [
        {
          "internalType": "uint256",
          "name": "",
          "type": "uint256"
        }
      ],
      "stateMutability": "view",
      "type": "function"
    },
    {
      "inputs": [],
      "name": "name",
      "outputs": [
        {
          "internalType": "string",
          "name": "",
          "type": "string"
        }
      ],
      "stateMutability": "view",
      "type": "function"
    },
    {
      "inputs": [],
      "name": "getStateInfo",
      "outputs": [
        {
          "internalType": "string",
          "name": "",
          "type": "string"
        },
        {
          "internalType": "uint256",
          "name": "",
          "type": "uint256"
        }
      ],
      "stateMutability": "view",
      "type": "function"
    },
    {
      "inputs": [
        {
          "internalType": "uint256",
          "name": "_amount",
          "type": "uint256"
        }
      ],
      "name": "requestForVaccine",
      "outputs": [],
      "stateMutability": "nonpayable",
      "type": "function"
    },
    {
      "inputs": [
        {
          "internalType": "uint256",
          "name": "_amount",
          "type": "uint256"
        }
      ],
      "name": "addVaccine",
      "outputs": [],
      "stateMutability": "nonpayable",
      "type": "function"
    },
    {
      "inputs": [],
      "name": "consumeVaccine",
      "outputs": [],
      "stateMutability": "nonpayable",
      "type": "function"
    }
  ],
  "bytecode": "0x60806040523480156200001157600080fd5b5060405162000a0e38038062000a0e8339818101604052810190620000379190620001b2565b81600290805190602001906200004f92919062000079565b508260008190555080600390805190602001906200006f92919062000079565b505050506200038f565b8280546200008790620002e1565b90600052602060002090601f016020900481019282620000ab5760008555620000f7565b82601f10620000c657805160ff1916838001178555620000f7565b82800160010185558215620000f7579182015b82811115620000f6578251825591602001919060010190620000d9565b5b5090506200010691906200010a565b5090565b5b80821115620001255760008160009055506001016200010b565b5090565b6000620001406200013a846200026e565b6200023a565b9050828152602081018484840111156200015957600080fd5b62000166848285620002ab565b509392505050565b600082601f8301126200018057600080fd5b81516200019284826020860162000129565b91505092915050565b600081519050620001ac8162000375565b92915050565b600080600060608486031215620001c857600080fd5b6000620001d8868287016200019b565b935050602084015167ffffffffffffffff811115620001f657600080fd5b62000204868287016200016e565b925050604084015167ffffffffffffffff8111156200022257600080fd5b62000230868287016200016e565b9150509250925092565b6000604051905081810181811067ffffffffffffffff8211171562000264576200026362000346565b5b8060405250919050565b600067ffffffffffffffff8211156200028c576200028b62000346565b5b601f19601f8301169050602081019050919050565b6000819050919050565b60005b83811015620002cb578082015181840152602081019050620002ae565b83811115620002db576000848401525b50505050565b60006002820490506001821680620002fa57607f821691505b6020821081141562000311576200031062000317565b5b50919050565b7f4e487b7100000000000000000000000000000000000000000000000000000000600052602260045260246000fd5b7f4e487b7100000000000000000000000000000000000000000000000000000000600052604160045260246000fd5b6200038081620002a1565b81146200038c57600080fd5b50565b61066f806200039f6000396000f3fe608060405234801561001057600080fd5b506004361061007d5760003560e01c806380c81c161161005b57806380c81c16146100c8578063960de4d0146100e75780639cc7a77714610105578063f0490933146101215761007d565b806306fdde03146100825780630a618d50146100a05780637cd48454146100aa575b600080fd5b61008a61013d565b60405161009791906103e7565b60405180910390f35b6100a86101cb565b005b6100b2610228565b6040516100bf9190610459565b60405180910390f35b6100d061022e565b6040516100de929190610409565b60405180910390f35b6100ef6102cb565b6040516100fc9190610459565b60405180910390f35b61011f600480360381019061011a9190610336565b6102d1565b005b61013b60048036038101906101369190610336565b6102ed565b005b6003805461014a90610581565b80601f016020809104026020016040519081016040528092919081815260200182805461017690610581565b80156101c35780601f10610198576101008083540402835291602001916101c3565b820191906000526020600020905b8154815290600101906020018083116101a657829003601f168201915b505050505081565b600080541161020f576040517f08c379a000000000000000000000000000000000000000000000000000000000815260040161020690610439565b60405180910390fd5b60008081548092919061022190610557565b9190505550565b60015481565b60606000600360015481805461024390610581565b80601f016020809104026020016040519081016040528092919081815260200182805461026f90610581565b80156102bc5780601f10610291576101008083540402835291602001916102bc565b820191906000526020600020905b81548152906001019060200180831161029f57829003601f168201915b50505050509150915091509091565b60005481565b80600160008282546102e39190610490565b9250508190555050565b80600160008282546102ff91906104e6565b92505081905550806000808282546103179190610490565b9250508190555050565b60008135905061033081610622565b92915050565b60006020828403121561034857600080fd5b600061035684828501610321565b91505092915050565b600061036a82610474565b610374818561047f565b9350610384818560208601610524565b61038d81610611565b840191505092915050565b60006103a560148361047f565b91507f4e6f2076616363696e6520617661696c61626c650000000000000000000000006000830152602082019050919050565b6103e18161051a565b82525050565b60006020820190508181036000830152610401818461035f565b905092915050565b60006040820190508181036000830152610423818561035f565b905061043260208301846103d8565b9392505050565b6000602082019050818103600083015261045281610398565b9050919050565b600060208201905061046e60008301846103d8565b92915050565b600081519050919050565b600082825260208201905092915050565b600061049b8261051a565b91506104a68361051a565b9250827fffffffffffffffffffffffffffffffffffffffffffffffffffffffffffffffff038211156104db576104da6105b3565b5b828201905092915050565b60006104f18261051a565b91506104fc8361051a565b92508282101561050f5761050e6105b3565b5b828203905092915050565b6000819050919050565b60005b83811015610542578082015181840152602081019050610527565b83811115610551576000848401525b50505050565b60006105628261051a565b91506000821415610576576105756105b3565b5b600182039050919050565b6000600282049050600182168061059957607f821691505b602082108114156105ad576105ac6105e2565b5b50919050565b7f4e487b7100000000000000000000000000000000000000000000000000000000600052601160045260246000fd5b7f4e487b7100000000000000000000000000000000000000000000000000000000600052602260045260246000fd5b6000601f19601f8301169050919050565b61062b8161051a565b811461063657600080fd5b5056fea2646970667358221220318ed1dd9759c22f63613e7c2d990a9c77f005c28805d4b92204226622e66fec64736f6c63430008000033",
  "immutableReferences": {},
  "source": "// SPDX-License-Identifier: MIT\npragma solidity ^0.8.0;\n\ncontract State {\n    uint public currentAvailableVaccine;\n    uint public currentRequestedVaccine;\n    string private password;\n    string public name;\n\n    constructor(uint _availableVaccine, string memory _password, string memory _name){\n        password = _password;\n        currentAvailableVaccine = _availableVaccine;\n        name = _name;\n    }\n\n    function getStateInfo() public view returns(string memory,uint){\n        return(name,currentRequestedVaccine);\n    }\n\n    function requestForVaccine(uint _amount) public {\n        currentRequestedVaccine+=_amount;\n    }\n\n    function addVaccine(uint _amount) public {\n        currentRequestedVaccine-=_amount;\n        currentAvailableVaccine+=_amount;\n    }\n\n    function consumeVaccine() public {\n        require(currentAvailableVaccine > 0,\"No vaccine available\");\n        currentAvailableVaccine--;\n    }\n\n    function changeYourPassword(string memory _newPassword) private {\n        password = _newPassword;\n    }\n\n}",
  "sourcePath": "/home/sumit/coding/etherium/covid/contracts/State.sol",
  "compiler": {
    "name": "solc",
    "version": "0.8.0+commit.c7dfd78e.Emscripten.clang"
  },
  "schemaVersion": "3.4.1",
  "updatedAt": "2021-08-18T06:09:18.368Z",
  "devdoc": {
    "kind": "dev",
    "methods": {},
    "version": 1
  },
  "userdoc": {
    "kind": "user",
    "methods": {},
    "version": 1
  }
}