{
  "contractName": "State",
  "abi": [
    {
      "inputs": [
        {
          "internalType": "uint256",
          "name": "_availableVaccine",
          "type": "uint256"
        },
        {
          "internalType": "string",
          "name": "_password",
          "type": "string"
        },
        {
          "internalType": "string",
          "name": "_name",
          "type": "string"
        }
      ],
      "stateMutability": "nonpayable",
      "type": "constructor"
    },
    {
      "inputs": [],
      "name": "currentAvailableVaccine",
      "outputs": [
        {
          "internalType": "uint256",
          "name": "",
          "type": "uint256"
        }
      ],
      "stateMutability": "view",
      "type": "function"
    },
    {
      "inputs": [],
      "name": "currentRequestedVaccine",
      "outputs": [
        {
          "internalType": "uint256",
          "name": "",
          "type": "uint256"
        }
      ],
      "stateMutability": "view",
      "type": "function"
    },
    {
      "inputs": [],
      "name": "name",
      "outputs": [
        {
          "internalType": "string",
          "name": "",
          "type": "string"
        }
      ],
      "stateMutability": "view",
      "type": "function"
    },
    {
      "inputs": [],
      "name": "getStateInfo",
      "outputs": [
        {
          "internalType": "string",
          "name": "",
          "type": "string"
        },
        {
          "internalType": "uint256",
          "name": "",
          "type": "uint256"
        }
      ],
      "stateMutability": "view",
      "type": "function"
    },
    {
      "inputs": [
        {
          "internalType": "string",
          "name": "_password",
          "type": "string"
        }
      ],
      "name": "getStateFullInfo",
      "outputs": [
        {
          "internalType": "string",
          "name": "",
          "type": "string"
        },
        {
          "internalType": "uint256",
          "name": "",
          "type": "uint256"
        },
        {
          "internalType": "uint256",
          "name": "",
          "type": "uint256"
        }
      ],
      "stateMutability": "view",
      "type": "function"
    },
    {
      "inputs": [
        {
          "internalType": "uint256",
          "name": "_amount",
          "type": "uint256"
        }
      ],
      "name": "requestForVaccine",
      "outputs": [],
      "stateMutability": "nonpayable",
      "type": "function"
    },
    {
      "inputs": [
        {
          "internalType": "uint256",
          "name": "_amount",
          "type": "uint256"
        }
      ],
      "name": "addVaccine",
      "outputs": [],
      "stateMutability": "nonpayable",
      "type": "function"
    },
    {
      "inputs": [
        {
          "internalType": "string",
          "name": "_password",
          "type": "string"
        }
      ],
      "name": "authenticate",
      "outputs": [
        {
          "internalType": "bool",
          "name": "",
          "type": "bool"
        }
      ],
      "stateMutability": "nonpayable",
      "type": "function"
    },
    {
      "inputs": [
        {
          "internalType": "uint256",
          "name": "_amount",
          "type": "uint256"
        },
        {
          "internalType": "string",
          "name": "_password",
          "type": "string"
        }
      ],
      "name": "consumeVaccine",
      "outputs": [],
      "stateMutability": "nonpayable",
      "type": "function"
    }
  ],
  "bytecode": "0x60806040523480156200001157600080fd5b5060405162000fc838038062000fc88339818101604052810190620000379190620001b2565b81600290805190602001906200004f92919062000079565b508260008190555080600390805190602001906200006f92919062000079565b505050506200038f565b8280546200008790620002e1565b90600052602060002090601f016020900481019282620000ab5760008555620000f7565b82601f10620000c657805160ff1916838001178555620000f7565b82800160010185558215620000f7579182015b82811115620000f6578251825591602001919060010190620000d9565b5b5090506200010691906200010a565b5090565b5b80821115620001255760008160009055506001016200010b565b5090565b6000620001406200013a846200026e565b6200023a565b9050828152602081018484840111156200015957600080fd5b62000166848285620002ab565b509392505050565b600082601f8301126200018057600080fd5b81516200019284826020860162000129565b91505092915050565b600081519050620001ac8162000375565b92915050565b600080600060608486031215620001c857600080fd5b6000620001d8868287016200019b565b935050602084015167ffffffffffffffff811115620001f657600080fd5b62000204868287016200016e565b925050604084015167ffffffffffffffff8111156200022257600080fd5b62000230868287016200016e565b9150509250925092565b6000604051905081810181811067ffffffffffffffff8211171562000264576200026362000346565b5b8060405250919050565b600067ffffffffffffffff8211156200028c576200028b62000346565b5b601f19601f8301169050602081019050919050565b6000819050919050565b60005b83811015620002cb578082015181840152602081019050620002ae565b83811115620002db576000848401525b50505050565b60006002820490506001821680620002fa57607f821691505b6020821081141562000311576200031062000317565b5b50919050565b7f4e487b7100000000000000000000000000000000000000000000000000000000600052602260045260246000fd5b7f4e487b7100000000000000000000000000000000000000000000000000000000600052604160045260246000fd5b6200038081620002a1565b81146200038c57600080fd5b50565b610c29806200039f6000396000f3fe608060405234801561001057600080fd5b50600436106100935760003560e01c8063960de4d011610066578063960de4d01461010f5780639cc7a7771461012d578063aa613b2914610149578063c1253c1e14610179578063f0490933146101ab57610093565b806306fdde03146100985780633143112d146100b65780637cd48454146100d257806380c81c16146100f0575b600080fd5b6100a06101c7565b6040516100ad91906108a2565b60405180910390f35b6100d060048036038101906100cb9190610658565b610255565b005b6100da6102fe565b6040516100e79190610972565b60405180910390f35b6100f8610304565b6040516101069291906108c4565b60405180910390f35b6101176103a1565b6040516101249190610972565b60405180910390f35b6101476004803603810190610142919061062f565b6103a7565b005b610163600480360381019061015e91906105ee565b6103c3565b6040516101709190610887565b60405180910390f35b610193600480360381019061018e91906105ee565b61042d565b6040516101a2939291906108f4565b60405180910390f35b6101c560048036038101906101c0919061062f565b61052e565b005b600380546101d490610b0c565b80601f016020809104026020016040519081016040528092919081815260200182805461020090610b0c565b801561024d5780601f106102225761010080835404028352916020019161024d565b820191906000526020600020905b81548152906001019060200180831161023057829003601f168201915b505050505081565b61025e816103c3565b61029d576040517f08c379a000000000000000000000000000000000000000000000000000000000815260040161029490610932565b60405180910390fd5b8160005410156102e2576040517f08c379a00000000000000000000000000000000000000000000000000000000081526004016102d990610952565b60405180910390fd5b816000808282546102f39190610a80565b925050819055505050565b60015481565b60606000600360015481805461031990610b0c565b80601f016020809104026020016040519081016040528092919081815260200182805461034590610b0c565b80156103925780601f1061036757610100808354040283529160200191610392565b820191906000526020600020905b81548152906001019060200180831161037557829003601f168201915b50505050509150915091509091565b60005481565b80600160008282546103b99190610a2a565b9250508190555050565b600060026040516020016103d79190610870565b60405160208183030381529060405280519060200120826040516020016103fe9190610859565b6040516020818303038152906040528051906020012014156104235760019050610428565b600090505b919050565b60606000808360026040516020016104459190610870565b604051602081830303815290604052805190602001208160405160200161046c9190610859565b604051602081830303815290604052805190602001201461048c57600080fd5b60036001546000548280546104a090610b0c565b80601f01602080910402602001604051908101604052809291908181526020018280546104cc90610b0c565b80156105195780601f106104ee57610100808354040283529160200191610519565b820191906000526020600020905b8154815290600101906020018083116104fc57829003601f168201915b50505050509250935093509350509193909250565b80600154101561053d57600080fd5b806001600082825461054f9190610a80565b92505081905550806000808282546105679190610a2a565b9250508190555050565b600061058461057f846109be565b61098d565b90508281526020810184848401111561059c57600080fd5b6105a7848285610aca565b509392505050565b600082601f8301126105c057600080fd5b81356105d0848260208601610571565b91505092915050565b6000813590506105e881610bdc565b92915050565b60006020828403121561060057600080fd5b600082013567ffffffffffffffff81111561061a57600080fd5b610626848285016105af565b91505092915050565b60006020828403121561064157600080fd5b600061064f848285016105d9565b91505092915050565b6000806040838503121561066b57600080fd5b6000610679858286016105d9565b925050602083013567ffffffffffffffff81111561069657600080fd5b6106a2858286016105af565b9150509250929050565b6106b581610ab4565b82525050565b60006106c682610a03565b6106d08185610a0e565b93506106e0818560208601610ad9565b6106e981610bcb565b840191505092915050565b60006106ff82610a03565b6107098185610a1f565b9350610719818560208601610ad9565b80840191505092915050565b6000815461073281610b0c565b61073c8186610a1f565b9450600182166000811461075757600181146107685761079b565b60ff1983168652818601935061079b565b610771856109ee565b60005b8381101561079357815481890152600182019150602081019050610774565b838801955050505b50505092915050565b60006107b1601c83610a0e565b91507f6f6e6c79207374617465206f776e65722063616e20636f6e73756d65000000006000830152602082019050919050565b60006107f1602283610a0e565b91507f43616e6e6f7420636f6e73756d65206d6f7265207468616e20617669616c616260008301527f6c650000000000000000000000000000000000000000000000000000000000006020830152604082019050919050565b61085381610ac0565b82525050565b600061086582846106f4565b915081905092915050565b600061087c8284610725565b915081905092915050565b600060208201905061089c60008301846106ac565b92915050565b600060208201905081810360008301526108bc81846106bb565b905092915050565b600060408201905081810360008301526108de81856106bb565b90506108ed602083018461084a565b9392505050565b6000606082019050818103600083015261090e81866106bb565b905061091d602083018561084a565b61092a604083018461084a565b949350505050565b6000602082019050818103600083015261094b816107a4565b9050919050565b6000602082019050818103600083015261096b816107e4565b9050919050565b6000602082019050610987600083018461084a565b92915050565b6000604051905081810181811067ffffffffffffffff821117156109b4576109b3610b9c565b5b8060405250919050565b600067ffffffffffffffff8211156109d9576109d8610b9c565b5b601f19601f8301169050602081019050919050565b60008190508160005260206000209050919050565b600081519050919050565b600082825260208201905092915050565b600081905092915050565b6000610a3582610ac0565b9150610a4083610ac0565b9250827fffffffffffffffffffffffffffffffffffffffffffffffffffffffffffffffff03821115610a7557610a74610b3e565b5b828201905092915050565b6000610a8b82610ac0565b9150610a9683610ac0565b925082821015610aa957610aa8610b3e565b5b828203905092915050565b60008115159050919050565b6000819050919050565b82818337600083830152505050565b60005b83811015610af7578082015181840152602081019050610adc565b83811115610b06576000848401525b50505050565b60006002820490506001821680610b2457607f821691505b60208210811415610b3857610b37610b6d565b5b50919050565b7f4e487b7100000000000000000000000000000000000000000000000000000000600052601160045260246000fd5b7f4e487b7100000000000000000000000000000000000000000000000000000000600052602260045260246000fd5b7f4e487b7100000000000000000000000000000000000000000000000000000000600052604160045260246000fd5b6000601f19601f8301169050919050565b610be581610ac0565b8114610bf057600080fd5b5056fea26469706673582212204ed2dd8d66bdec5413dc21d05bc51466eddf7057dd0e4db9b2fe1233ed9808a064736f6c63430008000033",
  "immutableReferences": {},
  "source": "// SPDX-License-Identifier: MIT\npragma solidity ^0.8.0;\n\ncontract State {\n    uint public currentAvailableVaccine;\n    uint public currentRequestedVaccine;\n    string private password;\n    string public name;\n\n    constructor(uint _availableVaccine, string memory _password, string memory _name){\n        password = _password;\n        currentAvailableVaccine = _availableVaccine;\n        name = _name;\n    }\n\n    modifier onlyOwner(string  memory _password) {\n      require(keccak256(abi.encodePacked(_password)) == keccak256(abi.encodePacked(password)));\n      _;\n    }\n\n    function getStateInfo() public view returns(string memory,uint){\n        return(name,currentRequestedVaccine);\n    }\n\n    function getStateFullInfo(string memory _password) public view onlyOwner(_password) returns(string memory, uint, uint){\n        return (name,currentRequestedVaccine,currentAvailableVaccine);\n    }\n\n    function requestForVaccine(uint _amount) public {\n        currentRequestedVaccine+=_amount;\n    }\n\n    function addVaccine(uint _amount) public {\n        require(currentRequestedVaccine >= _amount);\n        currentRequestedVaccine-=_amount;\n        currentAvailableVaccine+=_amount;\n    }\n\n\n    function changeYourPassword(string memory _newPassword) private {\n        password = _newPassword;\n    }\n\n    function authenticate(string  memory _password) public returns(bool){\n        if (keccak256(abi.encodePacked(_password)) == keccak256(abi.encodePacked(password))){\n            return true;\n        }else{\n            return false;\n        }\n    }\n\n    function consumeVaccine(uint _amount, string memory _password) public {\n        require(authenticate(_password),\"only state owner can consume\");\n        require(currentAvailableVaccine >= _amount,\"Cannot consume more than avialable\");\n        currentAvailableVaccine-=_amount;\n    }\n\n}",
  "sourcePath": "/home/sumit/coding/etherium/VaccineFarm/contracts/State.sol",
  "compiler": {
    "name": "solc",
    "version": "0.8.0+commit.c7dfd78e.Emscripten.clang"
  },
  "schemaVersion": "3.4.3",
  "updatedAt": "2021-09-12T14:27:55.656Z",
  "devdoc": {
    "kind": "dev",
    "methods": {},
    "version": 1
  },
  "userdoc": {
    "kind": "user",
    "methods": {},
    "version": 1
  }
}