{
  "contractName": "VaccineFarm",
  "abi": [
    {
      "inputs": [],
      "stateMutability": "nonpayable",
      "type": "constructor"
    },
    {
      "anonymous": false,
      "inputs": [
        {
          "indexed": false,
          "internalType": "address",
          "name": "_address",
          "type": "address"
        }
      ],
      "name": "newStateAdded",
      "type": "event"
    },
    {
      "anonymous": false,
      "inputs": [
        {
          "indexed": false,
          "internalType": "uint256",
          "name": "_amount",
          "type": "uint256"
        }
      ],
      "name": "vaccineCreated",
      "type": "event"
    },
    {
      "inputs": [],
      "name": "availableVaccine",
      "outputs": [
        {
          "internalType": "uint256",
          "name": "",
          "type": "uint256"
        }
      ],
      "stateMutability": "view",
      "type": "function",
      "constant": true
    },
    {
      "inputs": [],
      "name": "name",
      "outputs": [
        {
          "internalType": "string",
          "name": "",
          "type": "string"
        }
      ],
      "stateMutability": "view",
      "type": "function",
      "constant": true
    },
    {
      "inputs": [
        {
          "internalType": "uint256",
          "name": "",
          "type": "uint256"
        }
      ],
      "name": "states",
      "outputs": [
        {
          "internalType": "address",
          "name": "",
          "type": "address"
        }
      ],
      "stateMutability": "view",
      "type": "function",
      "constant": true
    },
    {
      "inputs": [
        {
          "internalType": "address",
          "name": "_state",
          "type": "address"
        },
        {
          "internalType": "uint256",
          "name": "_amount",
          "type": "uint256"
        }
      ],
      "name": "addToVaccineIssueQue",
      "outputs": [],
      "stateMutability": "nonpayable",
      "type": "function"
    },
    {
      "inputs": [
        {
          "internalType": "address",
          "name": "_state",
          "type": "address"
        },
        {
          "internalType": "uint256",
          "name": "_amount",
          "type": "uint256"
        }
      ],
      "name": "issueVaccine",
      "outputs": [],
      "stateMutability": "nonpayable",
      "type": "function"
    },
    {
      "inputs": [
        {
          "internalType": "string",
          "name": "password",
          "type": "string"
        },
        {
          "internalType": "string",
          "name": "_name",
          "type": "string"
        }
      ],
      "name": "registerNewState",
      "outputs": [
        {
          "internalType": "address",
          "name": "",
          "type": "address"
        }
      ],
      "stateMutability": "nonpayable",
      "type": "function"
    },
    {
      "inputs": [],
      "name": "getTotalStates",
      "outputs": [
        {
          "internalType": "address[]",
          "name": "",
          "type": "address[]"
        }
      ],
      "stateMutability": "view",
      "type": "function",
      "constant": true
    },
    {
      "inputs": [
        {
          "internalType": "address",
          "name": "_state1",
          "type": "address"
        }
      ],
      "name": "getStateDetails",
      "outputs": [
        {
          "internalType": "string",
          "name": "",
          "type": "string"
        },
        {
          "internalType": "uint256",
          "name": "",
          "type": "uint256"
        }
      ],
      "stateMutability": "nonpayable",
      "type": "function"
    },
    {
      "inputs": [
        {
          "internalType": "address",
          "name": "_state",
          "type": "address"
        }
      ],
      "name": "getVaccineIssueQueToState",
      "outputs": [
        {
          "internalType": "uint256",
          "name": "",
          "type": "uint256"
        }
      ],
      "stateMutability": "view",
      "type": "function",
      "constant": true
    },
    {
      "inputs": [
        {
          "internalType": "uint256",
          "name": "_amount",
          "type": "uint256"
        }
      ],
      "name": "createVaccine",
      "outputs": [
        {
          "internalType": "uint256",
          "name": "",
          "type": "uint256"
        }
      ],
      "stateMutability": "nonpayable",
      "type": "function"
    },
    {
      "inputs": [
        {
          "internalType": "address",
          "name": "_state",
          "type": "address"
        }
      ],
      "name": "totalVaccineIssued",
      "outputs": [
        {
          "internalType": "uint256",
          "name": "",
          "type": "uint256"
        }
      ],
      "stateMutability": "view",
      "type": "function",
      "constant": true
    }
  ],
  "bytecode": "0x60806040523480156200001157600080fd5b506127106000819055506040518060400160405280600b81526020017f56616363696e654661726d00000000000000000000000000000000000000000081525060019080519060200190620000689291906200006f565b5062000184565b8280546200007d906200011f565b90600052602060002090601f016020900481019282620000a15760008555620000ed565b82601f10620000bc57805160ff1916838001178555620000ed565b82800160010185558215620000ed579182015b82811115620000ec578251825591602001919060010190620000cf565b5b509050620000fc919062000100565b5090565b5b808211156200011b57600081600090555060010162000101565b5090565b600060028204905060018216806200013857607f821691505b602082108114156200014f576200014e62000155565b5b50919050565b7f4e487b7100000000000000000000000000000000000000000000000000000000600052602260045260246000fd5b61217980620001946000396000f3fe60806040523480156200001157600080fd5b5060043610620000b85760003560e01c8063947d0e2c116200007b578063947d0e2c14620001a2578063a349129f14620001d8578063a9c63cf514620001fa578063c1030f691462000230578063ec1acfcf1462000266578063ef4f916f146200028857620000b8565b8063017a910514620000bd57806306fdde0314620000f35780633b0bfbff14620001155780637cc8852914620001355780638950a7f5146200016b575b600080fd5b620000db6004803603810190620000d5919062000f64565b620002a8565b604051620000ea919062001233565b60405180910390f35b620000fd620002e8565b6040516200010c9190620012bf565b60405180910390f35b6200013360048036038101906200012d919062000e56565b6200037e565b005b6200015360048036038101906200014d919062000e2a565b62000572565b604051620001629190620013c1565b60405180910390f35b62000189600480360381019062000183919062000e2a565b620005bb565b60405162000199929190620012e3565b60405180910390f35b620001c06004803603810190620001ba919062000e2a565b6200071f565b604051620001cf9190620013c1565b60405180910390f35b620001e262000768565b604051620001f19190620013c1565b60405180910390f35b62000218600480360381019062000212919062000e97565b6200076e565b60405162000227919062001233565b60405180910390f35b6200024e600480360381019062000248919062000f64565b62000857565b6040516200025d9190620013c1565b60405180910390f35b62000270620008b8565b6040516200027f919062001250565b60405180910390f35b620002a66004803603810190620002a0919062000e56565b62000948565b005b60048181548110620002b957600080fd5b906000526020600020016000915054906101000a900473ffffffffffffffffffffffffffffffffffffffff1681565b60018054620002f790620015df565b80601f01602080910402602001604051908101604052809291908181526020018280546200032590620015df565b8015620003765780601f106200034a5761010080835404028352916020019162000376565b820191906000526020600020905b8154815290600101906020018083116200035857829003601f168201915b505050505081565b620003898262000c17565b620003cb576040517f08c379a0000000000000000000000000000000000000000000000000000000008152600401620003c29062001339565b60405180910390fd5b60008273ffffffffffffffffffffffffffffffffffffffff1682604051602401620003f79190620013c1565b6040516020818303038152906040527f9cc7a777000000000000000000000000000000000000000000000000000000007bffffffffffffffffffffffffffffffffffffffffffffffffffffffff19166020820180517bffffffffffffffffffffffffffffffffffffffffffffffffffffffff83818316178352505050506040516200048391906200121a565b6000604051808303816000865af19150503d8060008114620004c2576040519150601f19603f3d011682016040523d82523d6000602084013e620004c7565b606091505b50509050600115158115151462000515576040517f08c379a00000000000000000000000000000000000000000000000000000000081526004016200050c906200137d565b60405180910390fd5b81600260008573ffffffffffffffffffffffffffffffffffffffff1673ffffffffffffffffffffffffffffffffffffffff1681526020019081526020016000206000828254620005669190620014b0565b92505081905550505050565b6000600260008373ffffffffffffffffffffffffffffffffffffffff1673ffffffffffffffffffffffffffffffffffffffff168152602001908152602001600020549050919050565b606060008060008473ffffffffffffffffffffffffffffffffffffffff166040516024016040516020818303038152906040527f80c81c16000000000000000000000000000000000000000000000000000000007bffffffffffffffffffffffffffffffffffffffffffffffffffffffff19166020820180517bffffffffffffffffffffffffffffffffffffffffffffffffffffffff83818316178352505050506040516200066b91906200121a565b6000604051808303816000865af19150503d8060008114620006aa576040519150601f19603f3d011682016040523d82523d6000602084013e620006af565b606091505b50915091506001151582151514620006fe576040517f08c379a0000000000000000000000000000000000000000000000000000000008152600401620006f5906200139f565b60405180910390fd5b8080602001905181019062000714919062000f0a565b935093505050915091565b6000600360008373ffffffffffffffffffffffffffffffffffffffff1673ffffffffffffffffffffffffffffffffffffffff168152602001908152602001600020549050919050565b60005481565b60008060008484604051620007839062000cf3565b620007919392919062001274565b604051809103906000f080158015620007ae573d6000803e3d6000fd5b5090506004819080600181540180825580915050600190039060005260206000200160009091909190916101000a81548173ffffffffffffffffffffffffffffffffffffffff021916908373ffffffffffffffffffffffffffffffffffffffff1602179055507f67a0fe58f2d93a0342644f90c21bbf7c1c568e1a261e7040c982571f237679fb8160405162000845919062001233565b60405180910390a18091505092915050565b6000816000808282546200086c9190620014b0565b925050819055507fb5baf72f7f1f7e3a0a27cd7ff163c8fad74e3b03fa776afcbfbccda8e80d9037600054604051620008a69190620013c1565b60405180910390a16000549050919050565b606060048054806020026020016040519081016040528092919081815260200182805480156200093e57602002820191906000526020600020905b8160009054906101000a900473ffffffffffffffffffffffffffffffffffffffff1673ffffffffffffffffffffffffffffffffffffffff1681526020019060010190808311620008f3575b5050505050905090565b620009538262000c17565b62000995576040517f08c379a00000000000000000000000000000000000000000000000000000000081526004016200098c9062001339565b60405180910390fd5b60008273ffffffffffffffffffffffffffffffffffffffff1682604051602401620009c19190620013c1565b6040516020818303038152906040527ff0490933000000000000000000000000000000000000000000000000000000007bffffffffffffffffffffffffffffffffffffffffffffffffffffffff19166020820180517bffffffffffffffffffffffffffffffffffffffffffffffffffffffff838183161783525050505060405162000a4d91906200121a565b6000604051808303816000865af19150503d806000811462000a8c576040519150601f19603f3d011682016040523d82523d6000602084013e62000a91565b606091505b50509050600115158115151462000adf576040517f08c379a000000000000000000000000000000000000000000000000000000000815260040162000ad6906200135b565b60405180910390fd5b81600054101562000b27576040517f08c379a000000000000000000000000000000000000000000000000000000000815260040162000b1e9062001317565b60405180910390fd5b81600260008573ffffffffffffffffffffffffffffffffffffffff1673ffffffffffffffffffffffffffffffffffffffff168152602001908152602001600020600082825462000b7891906200150d565b9250508190555081600360008573ffffffffffffffffffffffffffffffffffffffff1673ffffffffffffffffffffffffffffffffffffffff168152602001908152602001600020600082825462000bd09190620014b0565b925050819055507fb5baf72f7f1f7e3a0a27cd7ff163c8fad74e3b03fa776afcbfbccda8e80d903760005460405162000c0a9190620013c1565b60405180910390a1505050565b600080600090505b60048054905081101562000ce8578273ffffffffffffffffffffffffffffffffffffffff166004828154811062000c7f577f4e487b7100000000000000000000000000000000000000000000000000000000600052603260045260246000fd5b9060005260206000200160009054906101000a900473ffffffffffffffffffffffffffffffffffffffff1673ffffffffffffffffffffffffffffffffffffffff16141562000cd257600191505062000cee565b808062000cdf9062001615565b91505062000c1f565b50600090505b919050565b610a0e806200173683390190565b600062000d1862000d128462001412565b620013de565b90508281526020810184848401111562000d3157600080fd5b62000d3e8482856200159a565b509392505050565b600062000d5d62000d578462001412565b620013de565b90508281526020810184848401111562000d7657600080fd5b62000d83848285620015a9565b509392505050565b60008135905062000d9c8162001701565b92915050565b600082601f83011262000db457600080fd5b813562000dc684826020860162000d01565b91505092915050565b600082601f83011262000de157600080fd5b815162000df384826020860162000d46565b91505092915050565b60008135905062000e0d816200171b565b92915050565b60008151905062000e24816200171b565b92915050565b60006020828403121562000e3d57600080fd5b600062000e4d8482850162000d8b565b91505092915050565b6000806040838503121562000e6a57600080fd5b600062000e7a8582860162000d8b565b925050602062000e8d8582860162000dfc565b9150509250929050565b6000806040838503121562000eab57600080fd5b600083013567ffffffffffffffff81111562000ec657600080fd5b62000ed48582860162000da2565b925050602083013567ffffffffffffffff81111562000ef257600080fd5b62000f008582860162000da2565b9150509250929050565b6000806040838503121562000f1e57600080fd5b600083015167ffffffffffffffff81111562000f3957600080fd5b62000f478582860162000dcf565b925050602062000f5a8582860162000e13565b9150509250929050565b60006020828403121562000f7757600080fd5b600062000f878482850162000dfc565b91505092915050565b600062000f9e838362000faa565b60208301905092915050565b62000fb58162001548565b82525050565b62000fc68162001548565b82525050565b600062000fd98262001455565b62000fe5818562001483565b935062000ff28362001445565b8060005b83811015620010295781516200100d888262000f90565b97506200101a8362001476565b92505060018101905062000ff6565b5085935050505092915050565b6000620010438262001460565b6200104f818562001494565b935062001061818560208601620015a9565b80840191505092915050565b620010788162001586565b82525050565b60006200108b826200146b565b6200109781856200149f565b9350620010a9818560208601620015a9565b620010b481620016f0565b840191505092915050565b6000620010ce6016836200149f565b91507f56616363696e65206f7574206f662073746f636b2021000000000000000000006000830152602082019050919050565b6000620011106017836200149f565b91507f5374617465206e6f7420726567697374657264207965740000000000000000006000830152602082019050919050565b600062001152601e836200149f565b91507f436f6c7564206e6f742061646420746f2069737375652076616363696e6500006000830152602082019050919050565b6000620011946020836200149f565b91507f436f6c7564206e6f742061646420746f2069737375652073746174656d656e746000830152602082019050919050565b6000620011d6601d836200149f565b91507f436f756c64206e6f742066657463682073746174652064657461696c730000006000830152602082019050919050565b62001214816200157c565b82525050565b600062001228828462001036565b915081905092915050565b60006020820190506200124a600083018462000fbb565b92915050565b600060208201905081810360008301526200126c818462000fcc565b905092915050565b60006060820190506200128b60008301866200106d565b81810360208301526200129f81856200107e565b90508181036040830152620012b581846200107e565b9050949350505050565b60006020820190508181036000830152620012db81846200107e565b905092915050565b60006040820190508181036000830152620012ff81856200107e565b905062001310602083018462001209565b9392505050565b600060208201905081810360008301526200133281620010bf565b9050919050565b60006020820190508181036000830152620013548162001101565b9050919050565b60006020820190508181036000830152620013768162001143565b9050919050565b60006020820190508181036000830152620013988162001185565b9050919050565b60006020820190508181036000830152620013ba81620011c7565b9050919050565b6000602082019050620013d8600083018462001209565b92915050565b6000604051905081810181811067ffffffffffffffff82111715620014085762001407620016c1565b5b8060405250919050565b600067ffffffffffffffff82111562001430576200142f620016c1565b5b601f19601f8301169050602081019050919050565b6000819050602082019050919050565b600081519050919050565b600081519050919050565b600081519050919050565b6000602082019050919050565b600082825260208201905092915050565b600081905092915050565b600082825260208201905092915050565b6000620014bd826200157c565b9150620014ca836200157c565b9250827fffffffffffffffffffffffffffffffffffffffffffffffffffffffffffffffff0382111562001502576200150162001663565b5b828201905092915050565b60006200151a826200157c565b915062001527836200157c565b9250828210156200153d576200153c62001663565b5b828203905092915050565b600062001555826200155c565b9050919050565b600073ffffffffffffffffffffffffffffffffffffffff82169050919050565b6000819050919050565b600062001593826200157c565b9050919050565b82818337600083830152505050565b60005b83811015620015c9578082015181840152602081019050620015ac565b83811115620015d9576000848401525b50505050565b60006002820490506001821680620015f857607f821691505b602082108114156200160f576200160e62001692565b5b50919050565b600062001622826200157c565b91507fffffffffffffffffffffffffffffffffffffffffffffffffffffffffffffffff82141562001658576200165762001663565b5b600182019050919050565b7f4e487b7100000000000000000000000000000000000000000000000000000000600052601160045260246000fd5b7f4e487b7100000000000000000000000000000000000000000000000000000000600052602260045260246000fd5b7f4e487b7100000000000000000000000000000000000000000000000000000000600052604160045260246000fd5b6000601f19601f8301169050919050565b6200170c8162001548565b81146200171857600080fd5b50565b62001726816200157c565b81146200173257600080fd5b5056fe60806040523480156200001157600080fd5b5060405162000a0e38038062000a0e8339818101604052810190620000379190620001b2565b81600290805190602001906200004f92919062000079565b508260008190555080600390805190602001906200006f92919062000079565b505050506200038f565b8280546200008790620002e1565b90600052602060002090601f016020900481019282620000ab5760008555620000f7565b82601f10620000c657805160ff1916838001178555620000f7565b82800160010185558215620000f7579182015b82811115620000f6578251825591602001919060010190620000d9565b5b5090506200010691906200010a565b5090565b5b80821115620001255760008160009055506001016200010b565b5090565b6000620001406200013a846200026e565b6200023a565b9050828152602081018484840111156200015957600080fd5b62000166848285620002ab565b509392505050565b600082601f8301126200018057600080fd5b81516200019284826020860162000129565b91505092915050565b600081519050620001ac8162000375565b92915050565b600080600060608486031215620001c857600080fd5b6000620001d8868287016200019b565b935050602084015167ffffffffffffffff811115620001f657600080fd5b62000204868287016200016e565b925050604084015167ffffffffffffffff8111156200022257600080fd5b62000230868287016200016e565b9150509250925092565b6000604051905081810181811067ffffffffffffffff8211171562000264576200026362000346565b5b8060405250919050565b600067ffffffffffffffff8211156200028c576200028b62000346565b5b601f19601f8301169050602081019050919050565b6000819050919050565b60005b83811015620002cb578082015181840152602081019050620002ae565b83811115620002db576000848401525b50505050565b60006002820490506001821680620002fa57607f821691505b6020821081141562000311576200031062000317565b5b50919050565b7f4e487b7100000000000000000000000000000000000000000000000000000000600052602260045260246000fd5b7f4e487b7100000000000000000000000000000000000000000000000000000000600052604160045260246000fd5b6200038081620002a1565b81146200038c57600080fd5b50565b61066f806200039f6000396000f3fe608060405234801561001057600080fd5b506004361061007d5760003560e01c806380c81c161161005b57806380c81c16146100c8578063960de4d0146100e75780639cc7a77714610105578063f0490933146101215761007d565b806306fdde03146100825780630a618d50146100a05780637cd48454146100aa575b600080fd5b61008a61013d565b60405161009791906103e7565b60405180910390f35b6100a86101cb565b005b6100b2610228565b6040516100bf9190610459565b60405180910390f35b6100d061022e565b6040516100de929190610409565b60405180910390f35b6100ef6102cb565b6040516100fc9190610459565b60405180910390f35b61011f600480360381019061011a9190610336565b6102d1565b005b61013b60048036038101906101369190610336565b6102ed565b005b6003805461014a90610581565b80601f016020809104026020016040519081016040528092919081815260200182805461017690610581565b80156101c35780601f10610198576101008083540402835291602001916101c3565b820191906000526020600020905b8154815290600101906020018083116101a657829003601f168201915b505050505081565b600080541161020f576040517f08c379a000000000000000000000000000000000000000000000000000000000815260040161020690610439565b60405180910390fd5b60008081548092919061022190610557565b9190505550565b60015481565b60606000600360015481805461024390610581565b80601f016020809104026020016040519081016040528092919081815260200182805461026f90610581565b80156102bc5780601f10610291576101008083540402835291602001916102bc565b820191906000526020600020905b81548152906001019060200180831161029f57829003601f168201915b50505050509150915091509091565b60005481565b80600160008282546102e39190610490565b9250508190555050565b80600160008282546102ff91906104e6565b92505081905550806000808282546103179190610490565b9250508190555050565b60008135905061033081610622565b92915050565b60006020828403121561034857600080fd5b600061035684828501610321565b91505092915050565b600061036a82610474565b610374818561047f565b9350610384818560208601610524565b61038d81610611565b840191505092915050565b60006103a560148361047f565b91507f4e6f2076616363696e6520617661696c61626c650000000000000000000000006000830152602082019050919050565b6103e18161051a565b82525050565b60006020820190508181036000830152610401818461035f565b905092915050565b60006040820190508181036000830152610423818561035f565b905061043260208301846103d8565b9392505050565b6000602082019050818103600083015261045281610398565b9050919050565b600060208201905061046e60008301846103d8565b92915050565b600081519050919050565b600082825260208201905092915050565b600061049b8261051a565b91506104a68361051a565b9250827fffffffffffffffffffffffffffffffffffffffffffffffffffffffffffffffff038211156104db576104da6105b3565b5b828201905092915050565b60006104f18261051a565b91506104fc8361051a565b92508282101561050f5761050e6105b3565b5b828203905092915050565b6000819050919050565b60005b83811015610542578082015181840152602081019050610527565b83811115610551576000848401525b50505050565b60006105628261051a565b91506000821415610576576105756105b3565b5b600182039050919050565b6000600282049050600182168061059957607f821691505b602082108114156105ad576105ac6105e2565b5b50919050565b7f4e487b7100000000000000000000000000000000000000000000000000000000600052601160045260246000fd5b7f4e487b7100000000000000000000000000000000000000000000000000000000600052602260045260246000fd5b6000601f19601f8301169050919050565b61062b8161051a565b811461063657600080fd5b5056fea2646970667358221220318ed1dd9759c22f63613e7c2d990a9c77f005c28805d4b92204226622e66fec64736f6c63430008000033a264697066735822122050465ff9721386216bb94036d5fcd1291c5bbd58c448345e82f7d70722925b6164736f6c63430008000033",
  "immutableReferences": {},
  "source": "// SPDX-License-Identifier: MIT\npragma solidity ^0.8.0;\nimport './State.sol';\n\ncontract VaccineFarm {\n  uint public availableVaccine;\n  string public name;\n  mapping(address=>uint) vaccineIssueQue;\n  mapping(address=>uint) vaccineIssuedList;\n  address[] public states;\n\n  event newStateAdded(address _address);\n  event vaccineCreated(uint _amount);\n\n  constructor(){\n    availableVaccine = 10000;\n    name = \"VaccineFarm\";\n  }\n  \n  function ifStateExist (address _state) private view returns(bool) {\n          for (uint i = 0; i < states.length; i++){\n              if(states[i] == _state){\n                return true;\n              }\n            }\n            return false;\n  }\n\n  function addToVaccineIssueQue(address _state, uint _amount) public {\n    require(ifStateExist(_state),\"State not registerd yet\");\n    (bool success, ) = _state.call(abi.encodeWithSignature(\"requestForVaccine(uint256)\",_amount));\n    require(success == true,\"Colud not add to issue statement\");\n    vaccineIssueQue[_state]+= _amount;\n  }\n\n  function issueVaccine(address _state, uint _amount) public {\n    require(ifStateExist(_state),\"State not registerd yet\");\n    (bool success, ) = _state.call(abi.encodeWithSignature(\"addVaccine(uint256)\",_amount));\n    require(success == true,\"Colud not add to issue vaccine\");\n    require(availableVaccine >= _amount, \"Vaccine out of stock !\");\n    vaccineIssueQue[_state] -= _amount;\n    vaccineIssuedList[_state] += _amount;\n    emit vaccineCreated(availableVaccine);\n  }\n\n  function registerNewState(string memory password, string memory _name) public returns(address) {\n    State new_state = new State(0,password,_name);\n    states.push(address(new_state));\n    emit newStateAdded(address(new_state));\n    return address(new_state);\n  }\n\n  function getTotalStates() public view returns(address[] memory){          \n    return states;\n  }\n\n  function getStateDetails(address _state1) public  returns(string memory, uint256){\n      (bool success, bytes memory result ) = _state1.call(abi.encodeWithSignature(\"getStateInfo()\"));\n      require(success == true,\"Could not fetch state details\");\n      return abi.decode(result,(string,uint256));\n  }\n\n  function getVaccineIssueQueToState(address _state) public view returns(uint){\n    return vaccineIssueQue[_state];\n  }\n\n  function createVaccine(uint _amount) public returns(uint){\n    availableVaccine+=_amount;\n    emit vaccineCreated(availableVaccine);\n    return availableVaccine;\n\n  }\n\n  function totalVaccineIssued(address _state) public view returns(uint){\n    return vaccineIssuedList[_state];\n  }\n\n}\n",
  "sourcePath": "/home/sumit/coding/etherium/covid/contracts/VaccineFarm.sol",
  "compiler": {
    "name": "solc",
    "version": "0.8.0+commit.c7dfd78e.Emscripten.clang"
  },
  "schemaVersion": "3.4.1",
  "updatedAt": "2021-08-18T10:25:58.067Z",
  "networkType": "ethereum",
  "devdoc": {
    "kind": "dev",
    "methods": {},
    "version": 1
  },
  "userdoc": {
    "kind": "user",
    "methods": {},
    "version": 1
  }
}