{
  "contractName": "VaccineFarm",
  "abi": [
    {
      "inputs": [],
      "stateMutability": "nonpayable",
      "type": "constructor"
    },
    {
      "anonymous": false,
      "inputs": [
        {
          "indexed": false,
          "internalType": "address",
          "name": "_address",
          "type": "address"
        }
      ],
      "name": "newStateAdded",
      "type": "event"
    },
    {
      "anonymous": false,
      "inputs": [
        {
          "indexed": false,
          "internalType": "uint256",
          "name": "_amount",
          "type": "uint256"
        }
      ],
      "name": "vaccineAddedToQue",
      "type": "event"
    },
    {
      "anonymous": false,
      "inputs": [
        {
          "indexed": false,
          "internalType": "address",
          "name": "_address",
          "type": "address"
        },
        {
          "indexed": false,
          "internalType": "uint256",
          "name": "_amount",
          "type": "uint256"
        }
      ],
      "name": "vaccineConsumed",
      "type": "event"
    },
    {
      "anonymous": false,
      "inputs": [
        {
          "indexed": false,
          "internalType": "uint256",
          "name": "_amount",
          "type": "uint256"
        }
      ],
      "name": "vaccineCreated",
      "type": "event"
    },
    {
      "anonymous": false,
      "inputs": [
        {
          "indexed": false,
          "internalType": "address",
          "name": "_address",
          "type": "address"
        },
        {
          "indexed": false,
          "internalType": "uint256",
          "name": "_amount",
          "type": "uint256"
        }
      ],
      "name": "vaccineIssued",
      "type": "event"
    },
    {
      "inputs": [],
      "name": "availableVaccine",
      "outputs": [
        {
          "internalType": "uint256",
          "name": "",
          "type": "uint256"
        }
      ],
      "stateMutability": "view",
      "type": "function",
      "constant": true
    },
    {
      "inputs": [],
      "name": "name",
      "outputs": [
        {
          "internalType": "string",
          "name": "",
          "type": "string"
        }
      ],
      "stateMutability": "view",
      "type": "function",
      "constant": true
    },
    {
      "inputs": [
        {
          "internalType": "uint256",
          "name": "",
          "type": "uint256"
        }
      ],
      "name": "states",
      "outputs": [
        {
          "internalType": "address",
          "name": "",
          "type": "address"
        }
      ],
      "stateMutability": "view",
      "type": "function",
      "constant": true
    },
    {
      "inputs": [
        {
          "internalType": "address",
          "name": "_state",
          "type": "address"
        },
        {
          "internalType": "uint256",
          "name": "_amount",
          "type": "uint256"
        }
      ],
      "name": "addToVaccineIssueQue",
      "outputs": [
        {
          "internalType": "uint256",
          "name": "",
          "type": "uint256"
        }
      ],
      "stateMutability": "nonpayable",
      "type": "function"
    },
    {
      "inputs": [
        {
          "internalType": "address",
          "name": "_state",
          "type": "address"
        },
        {
          "internalType": "uint256",
          "name": "_amount",
          "type": "uint256"
        }
      ],
      "name": "issueVaccine",
      "outputs": [],
      "stateMutability": "nonpayable",
      "type": "function"
    },
    {
      "inputs": [
        {
          "internalType": "string",
          "name": "password",
          "type": "string"
        },
        {
          "internalType": "string",
          "name": "_name",
          "type": "string"
        }
      ],
      "name": "registerNewState",
      "outputs": [
        {
          "internalType": "address",
          "name": "",
          "type": "address"
        }
      ],
      "stateMutability": "nonpayable",
      "type": "function"
    },
    {
      "inputs": [],
      "name": "getTotalStates",
      "outputs": [
        {
          "internalType": "address[]",
          "name": "",
          "type": "address[]"
        }
      ],
      "stateMutability": "view",
      "type": "function",
      "constant": true
    },
    {
      "inputs": [
        {
          "internalType": "address",
          "name": "_state1",
          "type": "address"
        }
      ],
      "name": "getStateDetails",
      "outputs": [
        {
          "internalType": "string",
          "name": "",
          "type": "string"
        },
        {
          "internalType": "uint256",
          "name": "",
          "type": "uint256"
        }
      ],
      "stateMutability": "nonpayable",
      "type": "function"
    },
    {
      "inputs": [
        {
          "internalType": "address",
          "name": "_state",
          "type": "address"
        }
      ],
      "name": "getVaccineIssueQueToState",
      "outputs": [
        {
          "internalType": "uint256",
          "name": "",
          "type": "uint256"
        }
      ],
      "stateMutability": "view",
      "type": "function",
      "constant": true
    },
    {
      "inputs": [
        {
          "internalType": "uint256",
          "name": "_amount",
          "type": "uint256"
        }
      ],
      "name": "createVaccine",
      "outputs": [
        {
          "internalType": "uint256",
          "name": "",
          "type": "uint256"
        }
      ],
      "stateMutability": "nonpayable",
      "type": "function"
    },
    {
      "inputs": [
        {
          "internalType": "address",
          "name": "_state",
          "type": "address"
        }
      ],
      "name": "totalVaccineIssued",
      "outputs": [
        {
          "internalType": "uint256",
          "name": "",
          "type": "uint256"
        }
      ],
      "stateMutability": "view",
      "type": "function",
      "constant": true
    },
    {
      "inputs": [
        {
          "internalType": "address",
          "name": "_address",
          "type": "address"
        },
        {
          "internalType": "string",
          "name": "_password",
          "type": "string"
        }
      ],
      "name": "authenticationForState",
      "outputs": [
        {
          "internalType": "bool",
          "name": "",
          "type": "bool"
        }
      ],
      "stateMutability": "nonpayable",
      "type": "function"
    },
    {
      "inputs": [
        {
          "internalType": "address",
          "name": "_address",
          "type": "address"
        },
        {
          "internalType": "string",
          "name": "_password",
          "type": "string"
        }
      ],
      "name": "fullDetailsForState",
      "outputs": [
        {
          "internalType": "string",
          "name": "",
          "type": "string"
        },
        {
          "internalType": "uint256",
          "name": "",
          "type": "uint256"
        },
        {
          "internalType": "uint256",
          "name": "",
          "type": "uint256"
        }
      ],
      "stateMutability": "nonpayable",
      "type": "function"
    },
    {
      "inputs": [
        {
          "internalType": "address",
          "name": "_address",
          "type": "address"
        },
        {
          "internalType": "uint256",
          "name": "_amount",
          "type": "uint256"
        },
        {
          "internalType": "string",
          "name": "_password",
          "type": "string"
        }
      ],
      "name": "consumeVaccine",
      "outputs": [],
      "stateMutability": "nonpayable",
      "type": "function"
    }
  ],
  "bytecode": "0x60806040523480156200001157600080fd5b506127106000819055506040518060400160405280600b81526020017f56616363696e654661726d00000000000000000000000000000000000000000081525060019080519060200190620000689291906200006f565b5062000184565b8280546200007d906200011f565b90600052602060002090601f016020900481019282620000a15760008555620000ed565b82601f10620000bc57805160ff1916838001178555620000ed565b82800160010185558215620000ed579182015b82811115620000ec578251825591602001919060010190620000cf565b5b509050620000fc919062000100565b5090565b5b808211156200011b57600081600090555060010162000101565b5090565b600060028204905060018216806200013857607f821691505b602082108114156200014f576200014e62000155565b5b50919050565b7f4e487b7100000000000000000000000000000000000000000000000000000000600052602260045260246000fd5b612f6380620001946000396000f3fe60806040523480156200001157600080fd5b5060043610620001005760003560e01c8063947d0e2c1162000099578063a9c63cf5116200006f578063a9c63cf514620002e6578063c1030f69146200031c578063ec1acfcf1462000352578063ef4f916f14620003745762000100565b8063947d0e2c146200026e578063a349129f14620002a4578063a989f4b314620002c65762000100565b80633b0bfbff11620000db5780633b0bfbff14620001955780637cc8852914620001cb5780637f5d1eb814620002015780638950a7f514620002375762000100565b8063017a9105146200010557806306fdde03146200013b57806313ef9a3f146200015d575b600080fd5b6200012360048036038101906200011d919062001637565b62000394565b60405162000132919062001959565b60405180910390f35b62000145620003d4565b60405162000154919062001a2f565b60405180910390f35b6200017b6004803603810190620001759190620013c5565b6200046a565b6040516200018c9392919062001a87565b60405180910390f35b620001b36004803603810190620001ad91906200141f565b62000596565b604051620001c2919062001b97565b60405180910390f35b620001e96004803603810190620001e3919062001399565b62000806565b604051620001f8919062001b97565b60405180910390f35b6200021f6004803603810190620002199190620013c5565b6200084f565b6040516200022e9190620019c7565b60405180910390f35b6200025560048036038101906200024f919062001399565b62000973565b6040516200026592919062001a53565b60405180910390f35b6200028c600480360381019062000286919062001399565b62000ad7565b6040516200029b919062001b97565b60405180910390f35b620002ae62000b20565b604051620002bd919062001b97565b60405180910390f35b620002e46004803603810190620002de919062001460565b62000b26565b005b620003046004803603810190620002fe9190620014fb565b62000cac565b60405162000313919062001959565b60405180910390f35b6200033a600480360381019062000334919062001637565b62000d95565b60405162000349919062001b97565b60405180910390f35b6200035c62000df6565b6040516200036b9190620019a3565b60405180910390f35b6200039260048036038101906200038c91906200141f565b62000e86565b005b60048181548110620003a557600080fd5b906000526020600020016000915054906101000a900473ffffffffffffffffffffffffffffffffffffffff1681565b60018054620003e39062001df5565b80601f0160208091040260200160405190810160405280929190818152602001828054620004119062001df5565b8015620004625780601f10620004365761010080835404028352916020019162000462565b820191906000526020600020905b8154815290600101906020018083116200044457829003601f168201915b505050505081565b60606000806000808673ffffffffffffffffffffffffffffffffffffffff16866040516024016200049c919062001a2f565b6040516020818303038152906040527fc1253c1e000000000000000000000000000000000000000000000000000000007bffffffffffffffffffffffffffffffffffffffffffffffffffffffff19166020820180517bffffffffffffffffffffffffffffffffffffffffffffffffffffffff838183161783525050505060405162000528919062001940565b6000604051808303816000865af19150503d806000811462000567576040519150601f19603f3d011682016040523d82523d6000602084013e6200056c565b606091505b509150915080806020019051810190620005879190620015c8565b94509450945050509250925092565b6000620005a3836200116f565b620005e5576040517f08c379a0000000000000000000000000000000000000000000000000000000008152600401620005dc9062001aed565b60405180910390fd5b60008373ffffffffffffffffffffffffffffffffffffffff168360405160240162000611919062001b97565b6040516020818303038152906040527f9cc7a777000000000000000000000000000000000000000000000000000000007bffffffffffffffffffffffffffffffffffffffffffffffffffffffff19166020820180517bffffffffffffffffffffffffffffffffffffffffffffffffffffffff83818316178352505050506040516200069d919062001940565b6000604051808303816000865af19150503d8060008114620006dc576040519150601f19603f3d011682016040523d82523d6000602084013e620006e1565b606091505b5050905060011515811515146200072f576040517f08c379a0000000000000000000000000000000000000000000000000000000008152600401620007269062001b53565b60405180910390fd5b82600260008673ffffffffffffffffffffffffffffffffffffffff1673ffffffffffffffffffffffffffffffffffffffff168152602001908152602001600020600082825462000780919062001cba565b925050819055507f8535a9ca7661db3a03fb0ddc3cc9f9f9cecfe86957ff26a9c1e578070e83bfe6600260008673ffffffffffffffffffffffffffffffffffffffff1673ffffffffffffffffffffffffffffffffffffffff16815260200190815260200160002054604051620007f7919062001b97565b60405180910390a15092915050565b6000600260008373ffffffffffffffffffffffffffffffffffffffff1673ffffffffffffffffffffffffffffffffffffffff168152602001908152602001600020549050919050565b60008060008473ffffffffffffffffffffffffffffffffffffffff16846040516024016200087e919062001a2f565b6040516020818303038152906040527faa613b29000000000000000000000000000000000000000000000000000000007bffffffffffffffffffffffffffffffffffffffffffffffffffffffff19166020820180517bffffffffffffffffffffffffffffffffffffffffffffffffffffffff83818316178352505050506040516200090a919062001940565b6000604051808303816000865af19150503d806000811462000949576040519150601f19603f3d011682016040523d82523d6000602084013e6200094e565b606091505b509150915080806020019051810190620009699190620014cf565b9250505092915050565b606060008060008473ffffffffffffffffffffffffffffffffffffffff166040516024016040516020818303038152906040527f80c81c16000000000000000000000000000000000000000000000000000000007bffffffffffffffffffffffffffffffffffffffffffffffffffffffff19166020820180517bffffffffffffffffffffffffffffffffffffffffffffffffffffffff838183161783525050505060405162000a23919062001940565b6000604051808303816000865af19150503d806000811462000a62576040519150601f19603f3d011682016040523d82523d6000602084013e62000a67565b606091505b5091509150600115158215151462000ab6576040517f08c379a000000000000000000000000000000000000000000000000000000000815260040162000aad9062001b75565b60405180910390fd5b8080602001905181019062000acc91906200156e565b935093505050915091565b6000600360008373ffffffffffffffffffffffffffffffffffffffff1673ffffffffffffffffffffffffffffffffffffffff168152602001908152602001600020549050919050565b60005481565b60008373ffffffffffffffffffffffffffffffffffffffff16838360405160240162000b5492919062001bb4565b6040516020818303038152906040527f3143112d000000000000000000000000000000000000000000000000000000007bffffffffffffffffffffffffffffffffffffffffffffffffffffffff19166020820180517bffffffffffffffffffffffffffffffffffffffffffffffffffffffff838183161783525050505060405162000be0919062001940565b6000604051808303816000865af19150503d806000811462000c1f576040519150601f19603f3d011682016040523d82523d6000602084013e62000c24565b606091505b505090508062000c6b576040517f08c379a000000000000000000000000000000000000000000000000000000000815260040162000c629062001b0f565b60405180910390fd5b7f44a8b1be7fc42c4eaaad46d81569736718d15de36394d1c40776cf09dff5aecd848460405162000c9e92919062001976565b60405180910390a150505050565b6000806000848460405162000cc1906200124b565b62000ccf93929190620019e4565b604051809103906000f08015801562000cec573d6000803e3d6000fd5b5090506004819080600181540180825580915050600190039060005260206000200160009091909190916101000a81548173ffffffffffffffffffffffffffffffffffffffff021916908373ffffffffffffffffffffffffffffffffffffffff1602179055507f67a0fe58f2d93a0342644f90c21bbf7c1c568e1a261e7040c982571f237679fb8160405162000d83919062001959565b60405180910390a18091505092915050565b60008160008082825462000daa919062001cba565b925050819055507fb5baf72f7f1f7e3a0a27cd7ff163c8fad74e3b03fa776afcbfbccda8e80d903760005460405162000de4919062001b97565b60405180910390a16000549050919050565b6060600480548060200260200160405190810160405280929190818152602001828054801562000e7c57602002820191906000526020600020905b8160009054906101000a900473ffffffffffffffffffffffffffffffffffffffff1673ffffffffffffffffffffffffffffffffffffffff168152602001906001019080831162000e31575b5050505050905090565b62000e91826200116f565b62000ed3576040517f08c379a000000000000000000000000000000000000000000000000000000000815260040162000eca9062001aed565b60405180910390fd5b60008273ffffffffffffffffffffffffffffffffffffffff168260405160240162000eff919062001b97565b6040516020818303038152906040527ff0490933000000000000000000000000000000000000000000000000000000007bffffffffffffffffffffffffffffffffffffffffffffffffffffffff19166020820180517bffffffffffffffffffffffffffffffffffffffffffffffffffffffff838183161783525050505060405162000f8b919062001940565b6000604051808303816000865af19150503d806000811462000fca576040519150601f19603f3d011682016040523d82523d6000602084013e62000fcf565b606091505b5050905060011515811515146200101d576040517f08c379a0000000000000000000000000000000000000000000000000000000008152600401620010149062001b31565b60405180910390fd5b81600054101562001065576040517f08c379a00000000000000000000000000000000000000000000000000000000081526004016200105c9062001acb565b60405180910390fd5b81600260008573ffffffffffffffffffffffffffffffffffffffff1673ffffffffffffffffffffffffffffffffffffffff1681526020019081526020016000206000828254620010b6919062001d17565b9250508190555081600360008573ffffffffffffffffffffffffffffffffffffffff1673ffffffffffffffffffffffffffffffffffffffff16815260200190815260200160002060008282546200110e919062001cba565b925050819055508160008082825462001128919062001d17565b925050819055507faa51f50b4aedca81f9dba7df84749854bd6a38df9ec9ac42a159a72d59394f5683836040516200116292919062001976565b60405180910390a1505050565b600080600090505b60048054905081101562001240578273ffffffffffffffffffffffffffffffffffffffff1660048281548110620011d7577f4e487b7100000000000000000000000000000000000000000000000000000000600052603260045260246000fd5b9060005260206000200160009054906101000a900473ffffffffffffffffffffffffffffffffffffffff1673ffffffffffffffffffffffffffffffffffffffff1614156200122a57600191505062001246565b8080620012379062001e2b565b91505062001177565b50600090505b919050565b610fc88062001f6683390190565b6000620012706200126a8462001c1c565b62001be8565b9050828152602081018484840111156200128957600080fd5b6200129684828562001db0565b509392505050565b6000620012b5620012af8462001c1c565b62001be8565b905082815260208101848484011115620012ce57600080fd5b620012db84828562001dbf565b509392505050565b600081359050620012f48162001f17565b92915050565b6000815190506200130b8162001f31565b92915050565b600082601f8301126200132357600080fd5b81356200133584826020860162001259565b91505092915050565b600082601f8301126200135057600080fd5b8151620013628482602086016200129e565b91505092915050565b6000813590506200137c8162001f4b565b92915050565b600081519050620013938162001f4b565b92915050565b600060208284031215620013ac57600080fd5b6000620013bc84828501620012e3565b91505092915050565b60008060408385031215620013d957600080fd5b6000620013e985828601620012e3565b925050602083013567ffffffffffffffff8111156200140757600080fd5b620014158582860162001311565b9150509250929050565b600080604083850312156200143357600080fd5b60006200144385828601620012e3565b925050602062001456858286016200136b565b9150509250929050565b6000806000606084860312156200147657600080fd5b60006200148686828701620012e3565b935050602062001499868287016200136b565b925050604084013567ffffffffffffffff811115620014b757600080fd5b620014c58682870162001311565b9150509250925092565b600060208284031215620014e257600080fd5b6000620014f284828501620012fa565b91505092915050565b600080604083850312156200150f57600080fd5b600083013567ffffffffffffffff8111156200152a57600080fd5b620015388582860162001311565b925050602083013567ffffffffffffffff8111156200155657600080fd5b620015648582860162001311565b9150509250929050565b600080604083850312156200158257600080fd5b600083015167ffffffffffffffff8111156200159d57600080fd5b620015ab858286016200133e565b9250506020620015be8582860162001382565b9150509250929050565b600080600060608486031215620015de57600080fd5b600084015167ffffffffffffffff811115620015f957600080fd5b62001607868287016200133e565b93505060206200161a8682870162001382565b92505060406200162d8682870162001382565b9150509250925092565b6000602082840312156200164a57600080fd5b60006200165a848285016200136b565b91505092915050565b60006200167183836200167d565b60208301905092915050565b620016888162001d52565b82525050565b620016998162001d52565b82525050565b6000620016ac8262001c5f565b620016b8818562001c8d565b9350620016c58362001c4f565b8060005b83811015620016fc578151620016e0888262001663565b9750620016ed8362001c80565b925050600181019050620016c9565b5085935050505092915050565b620017148162001d66565b82525050565b6000620017278262001c6a565b62001733818562001c9e565b93506200174581856020860162001dbf565b80840191505092915050565b6200175c8162001d9c565b82525050565b60006200176f8262001c75565b6200177b818562001ca9565b93506200178d81856020860162001dbf565b620017988162001f06565b840191505092915050565b6000620017b260168362001ca9565b91507f56616363696e65206f7574206f662073746f636b2021000000000000000000006000830152602082019050919050565b6000620017f460178362001ca9565b91507f5374617465206e6f7420726567697374657264207965740000000000000000006000830152602082019050919050565b60006200183660158362001ca9565b91507f536f6d657468696e672077656e27742077726f6e6700000000000000000000006000830152602082019050919050565b600062001878601e8362001ca9565b91507f436f6c7564206e6f742061646420746f2069737375652076616363696e6500006000830152602082019050919050565b6000620018ba60208362001ca9565b91507f436f6c7564206e6f742061646420746f2069737375652073746174656d656e746000830152602082019050919050565b6000620018fc601d8362001ca9565b91507f436f756c64206e6f742066657463682073746174652064657461696c730000006000830152602082019050919050565b6200193a8162001d92565b82525050565b60006200194e82846200171a565b915081905092915050565b60006020820190506200197060008301846200168e565b92915050565b60006040820190506200198d60008301856200168e565b6200199c60208301846200192f565b9392505050565b60006020820190508181036000830152620019bf81846200169f565b905092915050565b6000602082019050620019de600083018462001709565b92915050565b6000606082019050620019fb600083018662001751565b818103602083015262001a0f818562001762565b9050818103604083015262001a25818462001762565b9050949350505050565b6000602082019050818103600083015262001a4b818462001762565b905092915050565b6000604082019050818103600083015262001a6f818562001762565b905062001a8060208301846200192f565b9392505050565b6000606082019050818103600083015262001aa3818662001762565b905062001ab460208301856200192f565b62001ac360408301846200192f565b949350505050565b6000602082019050818103600083015262001ae681620017a3565b9050919050565b6000602082019050818103600083015262001b0881620017e5565b9050919050565b6000602082019050818103600083015262001b2a8162001827565b9050919050565b6000602082019050818103600083015262001b4c8162001869565b9050919050565b6000602082019050818103600083015262001b6e81620018ab565b9050919050565b6000602082019050818103600083015262001b9081620018ed565b9050919050565b600060208201905062001bae60008301846200192f565b92915050565b600060408201905062001bcb60008301856200192f565b818103602083015262001bdf818462001762565b90509392505050565b6000604051905081810181811067ffffffffffffffff8211171562001c125762001c1162001ed7565b5b8060405250919050565b600067ffffffffffffffff82111562001c3a5762001c3962001ed7565b5b601f19601f8301169050602081019050919050565b6000819050602082019050919050565b600081519050919050565b600081519050919050565b600081519050919050565b6000602082019050919050565b600082825260208201905092915050565b600081905092915050565b600082825260208201905092915050565b600062001cc78262001d92565b915062001cd48362001d92565b9250827fffffffffffffffffffffffffffffffffffffffffffffffffffffffffffffffff0382111562001d0c5762001d0b62001e79565b5b828201905092915050565b600062001d248262001d92565b915062001d318362001d92565b92508282101562001d475762001d4662001e79565b5b828203905092915050565b600062001d5f8262001d72565b9050919050565b60008115159050919050565b600073ffffffffffffffffffffffffffffffffffffffff82169050919050565b6000819050919050565b600062001da98262001d92565b9050919050565b82818337600083830152505050565b60005b8381101562001ddf57808201518184015260208101905062001dc2565b8381111562001def576000848401525b50505050565b6000600282049050600182168062001e0e57607f821691505b6020821081141562001e255762001e2462001ea8565b5b50919050565b600062001e388262001d92565b91507fffffffffffffffffffffffffffffffffffffffffffffffffffffffffffffffff82141562001e6e5762001e6d62001e79565b5b600182019050919050565b7f4e487b7100000000000000000000000000000000000000000000000000000000600052601160045260246000fd5b7f4e487b7100000000000000000000000000000000000000000000000000000000600052602260045260246000fd5b7f4e487b7100000000000000000000000000000000000000000000000000000000600052604160045260246000fd5b6000601f19601f8301169050919050565b62001f228162001d52565b811462001f2e57600080fd5b50565b62001f3c8162001d66565b811462001f4857600080fd5b50565b62001f568162001d92565b811462001f6257600080fd5b5056fe60806040523480156200001157600080fd5b5060405162000fc838038062000fc88339818101604052810190620000379190620001b2565b81600290805190602001906200004f92919062000079565b508260008190555080600390805190602001906200006f92919062000079565b505050506200038f565b8280546200008790620002e1565b90600052602060002090601f016020900481019282620000ab5760008555620000f7565b82601f10620000c657805160ff1916838001178555620000f7565b82800160010185558215620000f7579182015b82811115620000f6578251825591602001919060010190620000d9565b5b5090506200010691906200010a565b5090565b5b80821115620001255760008160009055506001016200010b565b5090565b6000620001406200013a846200026e565b6200023a565b9050828152602081018484840111156200015957600080fd5b62000166848285620002ab565b509392505050565b600082601f8301126200018057600080fd5b81516200019284826020860162000129565b91505092915050565b600081519050620001ac8162000375565b92915050565b600080600060608486031215620001c857600080fd5b6000620001d8868287016200019b565b935050602084015167ffffffffffffffff811115620001f657600080fd5b62000204868287016200016e565b925050604084015167ffffffffffffffff8111156200022257600080fd5b62000230868287016200016e565b9150509250925092565b6000604051905081810181811067ffffffffffffffff8211171562000264576200026362000346565b5b8060405250919050565b600067ffffffffffffffff8211156200028c576200028b62000346565b5b601f19601f8301169050602081019050919050565b6000819050919050565b60005b83811015620002cb578082015181840152602081019050620002ae565b83811115620002db576000848401525b50505050565b60006002820490506001821680620002fa57607f821691505b6020821081141562000311576200031062000317565b5b50919050565b7f4e487b7100000000000000000000000000000000000000000000000000000000600052602260045260246000fd5b7f4e487b7100000000000000000000000000000000000000000000000000000000600052604160045260246000fd5b6200038081620002a1565b81146200038c57600080fd5b50565b610c29806200039f6000396000f3fe608060405234801561001057600080fd5b50600436106100935760003560e01c8063960de4d011610066578063960de4d01461010f5780639cc7a7771461012d578063aa613b2914610149578063c1253c1e14610179578063f0490933146101ab57610093565b806306fdde03146100985780633143112d146100b65780637cd48454146100d257806380c81c16146100f0575b600080fd5b6100a06101c7565b6040516100ad91906108a2565b60405180910390f35b6100d060048036038101906100cb9190610658565b610255565b005b6100da6102fe565b6040516100e79190610972565b60405180910390f35b6100f8610304565b6040516101069291906108c4565b60405180910390f35b6101176103a1565b6040516101249190610972565b60405180910390f35b6101476004803603810190610142919061062f565b6103a7565b005b610163600480360381019061015e91906105ee565b6103c3565b6040516101709190610887565b60405180910390f35b610193600480360381019061018e91906105ee565b61042d565b6040516101a2939291906108f4565b60405180910390f35b6101c560048036038101906101c0919061062f565b61052e565b005b600380546101d490610b0c565b80601f016020809104026020016040519081016040528092919081815260200182805461020090610b0c565b801561024d5780601f106102225761010080835404028352916020019161024d565b820191906000526020600020905b81548152906001019060200180831161023057829003601f168201915b505050505081565b61025e816103c3565b61029d576040517f08c379a000000000000000000000000000000000000000000000000000000000815260040161029490610932565b60405180910390fd5b8160005410156102e2576040517f08c379a00000000000000000000000000000000000000000000000000000000081526004016102d990610952565b60405180910390fd5b816000808282546102f39190610a80565b925050819055505050565b60015481565b60606000600360015481805461031990610b0c565b80601f016020809104026020016040519081016040528092919081815260200182805461034590610b0c565b80156103925780601f1061036757610100808354040283529160200191610392565b820191906000526020600020905b81548152906001019060200180831161037557829003601f168201915b50505050509150915091509091565b60005481565b80600160008282546103b99190610a2a565b9250508190555050565b600060026040516020016103d79190610870565b60405160208183030381529060405280519060200120826040516020016103fe9190610859565b6040516020818303038152906040528051906020012014156104235760019050610428565b600090505b919050565b60606000808360026040516020016104459190610870565b604051602081830303815290604052805190602001208160405160200161046c9190610859565b604051602081830303815290604052805190602001201461048c57600080fd5b60036001546000548280546104a090610b0c565b80601f01602080910402602001604051908101604052809291908181526020018280546104cc90610b0c565b80156105195780601f106104ee57610100808354040283529160200191610519565b820191906000526020600020905b8154815290600101906020018083116104fc57829003601f168201915b50505050509250935093509350509193909250565b80600154101561053d57600080fd5b806001600082825461054f9190610a80565b92505081905550806000808282546105679190610a2a565b9250508190555050565b600061058461057f846109be565b61098d565b90508281526020810184848401111561059c57600080fd5b6105a7848285610aca565b509392505050565b600082601f8301126105c057600080fd5b81356105d0848260208601610571565b91505092915050565b6000813590506105e881610bdc565b92915050565b60006020828403121561060057600080fd5b600082013567ffffffffffffffff81111561061a57600080fd5b610626848285016105af565b91505092915050565b60006020828403121561064157600080fd5b600061064f848285016105d9565b91505092915050565b6000806040838503121561066b57600080fd5b6000610679858286016105d9565b925050602083013567ffffffffffffffff81111561069657600080fd5b6106a2858286016105af565b9150509250929050565b6106b581610ab4565b82525050565b60006106c682610a03565b6106d08185610a0e565b93506106e0818560208601610ad9565b6106e981610bcb565b840191505092915050565b60006106ff82610a03565b6107098185610a1f565b9350610719818560208601610ad9565b80840191505092915050565b6000815461073281610b0c565b61073c8186610a1f565b9450600182166000811461075757600181146107685761079b565b60ff1983168652818601935061079b565b610771856109ee565b60005b8381101561079357815481890152600182019150602081019050610774565b838801955050505b50505092915050565b60006107b1601c83610a0e565b91507f6f6e6c79207374617465206f776e65722063616e20636f6e73756d65000000006000830152602082019050919050565b60006107f1602283610a0e565b91507f43616e6e6f7420636f6e73756d65206d6f7265207468616e20617669616c616260008301527f6c650000000000000000000000000000000000000000000000000000000000006020830152604082019050919050565b61085381610ac0565b82525050565b600061086582846106f4565b915081905092915050565b600061087c8284610725565b915081905092915050565b600060208201905061089c60008301846106ac565b92915050565b600060208201905081810360008301526108bc81846106bb565b905092915050565b600060408201905081810360008301526108de81856106bb565b90506108ed602083018461084a565b9392505050565b6000606082019050818103600083015261090e81866106bb565b905061091d602083018561084a565b61092a604083018461084a565b949350505050565b6000602082019050818103600083015261094b816107a4565b9050919050565b6000602082019050818103600083015261096b816107e4565b9050919050565b6000602082019050610987600083018461084a565b92915050565b6000604051905081810181811067ffffffffffffffff821117156109b4576109b3610b9c565b5b8060405250919050565b600067ffffffffffffffff8211156109d9576109d8610b9c565b5b601f19601f8301169050602081019050919050565b60008190508160005260206000209050919050565b600081519050919050565b600082825260208201905092915050565b600081905092915050565b6000610a3582610ac0565b9150610a4083610ac0565b9250827fffffffffffffffffffffffffffffffffffffffffffffffffffffffffffffffff03821115610a7557610a74610b3e565b5b828201905092915050565b6000610a8b82610ac0565b9150610a9683610ac0565b925082821015610aa957610aa8610b3e565b5b828203905092915050565b60008115159050919050565b6000819050919050565b82818337600083830152505050565b60005b83811015610af7578082015181840152602081019050610adc565b83811115610b06576000848401525b50505050565b60006002820490506001821680610b2457607f821691505b60208210811415610b3857610b37610b6d565b5b50919050565b7f4e487b7100000000000000000000000000000000000000000000000000000000600052601160045260246000fd5b7f4e487b7100000000000000000000000000000000000000000000000000000000600052602260045260246000fd5b7f4e487b7100000000000000000000000000000000000000000000000000000000600052604160045260246000fd5b6000601f19601f8301169050919050565b610be581610ac0565b8114610bf057600080fd5b5056fea26469706673582212205e916e4e79461a08ab7bd00114629b5c412997e972aa30bbf4a9f0ac23cc454564736f6c63430008000033a26469706673582212200525b832d91e0b6710696a4db86df81c44f75fa51f7b4f7d0a1af9a72d7542e364736f6c63430008000033",
  "immutableReferences": {},
  "source": "// SPDX-License-Identifier: MIT\npragma solidity ^0.8.0;\nimport './State.sol';\n\ncontract VaccineFarm {\n  uint public availableVaccine;\n  string public name;\n  mapping(address=>uint) vaccineIssueQue;\n  mapping(address=>uint) vaccineIssuedList;\n  address[] public states;\n\n  event newStateAdded(address _address);\n  event vaccineCreated(uint _amount);\n  event vaccineAddedToQue(uint _amount);\n  event vaccineIssued(address _address, uint _amount);\n  event vaccineConsumed(address _address, uint _amount);\n\n  constructor(){\n    availableVaccine = 10000;\n    name = \"VaccineFarm\";\n  }\n  \n  function ifStateExist (address _state) private view returns(bool) {\n          for (uint i = 0; i < states.length; i++){\n              if(states[i] == _state){\n                return true;\n              }\n            }\n            return false;\n  }\n\n  function addToVaccineIssueQue(address _state, uint _amount) public returns(uint256) {\n    require(ifStateExist(_state),\"State not registerd yet\");\n    (bool success, ) = _state.call(abi.encodeWithSignature(\"requestForVaccine(uint256)\",_amount));\n    require(success == true,\"Colud not add to issue statement\");\n    vaccineIssueQue[_state]+= _amount;\n    emit vaccineAddedToQue(vaccineIssueQue[_state]);\n  }\n\n  function issueVaccine(address _state, uint _amount) public {\n    require(ifStateExist(_state),\"State not registerd yet\");\n    (bool success, ) = _state.call(abi.encodeWithSignature(\"addVaccine(uint256)\",_amount));\n    require(success == true,\"Colud not add to issue vaccine\");\n    require(availableVaccine >= _amount, \"Vaccine out of stock !\");\n    vaccineIssueQue[_state] -= _amount;\n    vaccineIssuedList[_state] += _amount;\n    availableVaccine-=_amount;\n    emit vaccineIssued(_state,_amount);\n  }\n\n  function registerNewState(string memory password, string memory _name) public returns(address) {\n    State new_state = new State(0,password,_name);\n    states.push(address(new_state));\n    emit newStateAdded(address(new_state));\n    return address(new_state);\n  }\n\n  function getTotalStates() public view returns(address[] memory){          \n    return states;\n  }\n\n  function getStateDetails(address _state1) public  returns(string memory, uint256){\n      (bool success, bytes memory result ) = _state1.call(abi.encodeWithSignature(\"getStateInfo()\"));\n      require(success == true,\"Could not fetch state details\");\n      return abi.decode(result,(string,uint256));\n  }\n\n  function getVaccineIssueQueToState(address _state) public view returns(uint){\n    return vaccineIssueQue[_state];\n  }\n\n  function createVaccine(uint _amount) public returns(uint){\n    availableVaccine+=_amount;\n    emit vaccineCreated(availableVaccine);\n    return availableVaccine;\n  }\n\n  function totalVaccineIssued(address _state) public view returns(uint){\n    return vaccineIssuedList[_state];\n  }\n\n  function authenticationForState(address _address, string memory _password) public returns(bool){\n    (bool success, bytes memory result ) = _address.call(abi.encodeWithSignature(\"authenticate(string)\", _password));\n    return abi.decode(result,(bool));\n  }\n\n  function fullDetailsForState(address _address, string memory _password) public returns(string memory, uint256, uint256){\n    (bool success, bytes memory result) = _address.call(abi.encodeWithSignature(\"getStateFullInfo(string)\",_password));\n    return abi.decode(result,(string,uint256,uint256));\n  }\n\n  function consumeVaccine(address _address, uint _amount, string memory _password) public {\n    (bool success, ) = _address.call(abi.encodeWithSignature(\"consumeVaccine(uint256,string)\",_amount,_password));\n    require(success,\"Something wen't wrong\");\n    emit vaccineConsumed(_address,_amount);\n\n  }\n\n}\n",
  "sourcePath": "/home/sumit/coding/etherium/covid/contracts/VaccineFarm.sol",
  "compiler": {
    "name": "solc",
    "version": "0.8.0+commit.c7dfd78e.Emscripten.clang"
  },
  "schemaVersion": "3.4.1",
  "updatedAt": "2021-08-24T05:23:17.574Z",
  "networkType": "ethereum",
  "devdoc": {
    "kind": "dev",
    "methods": {},
    "version": 1
  },
  "userdoc": {
    "kind": "user",
    "methods": {},
    "version": 1
  }
}